{
  "contractName": "DataStorage",
  "abi": [
    {
      "constant": true,
      "inputs": [],
      "name": "dataCount",
      "outputs": [
        {
          "name": "",
          "type": "uint256"
        }
      ],
      "payable": false,
      "stateMutability": "view",
      "type": "function"
    },
    {
      "constant": true,
      "inputs": [
        {
          "name": "",
          "type": "uint256"
        }
      ],
      "name": "dataList",
      "outputs": [
        {
          "name": "id",
          "type": "uint256"
        },
        {
          "name": "value",
          "type": "string"
        }
      ],
      "payable": false,
      "stateMutability": "view",
      "type": "function"
    },
    {
      "anonymous": false,
      "inputs": [
        {
          "indexed": false,
          "name": "id",
          "type": "uint256"
        },
        {
          "indexed": false,
          "name": "value",
          "type": "string"
        }
      ],
      "name": "DataStored",
      "type": "event"
    },
    {
      "constant": false,
      "inputs": [
        {
          "name": "_value",
          "type": "string"
        }
      ],
      "name": "storeData",
      "outputs": [],
      "payable": false,
      "stateMutability": "nonpayable",
      "type": "function"
    },
    {
      "constant": true,
      "inputs": [
        {
          "name": "_id",
          "type": "uint256"
        }
      ],
      "name": "getData",
      "outputs": [
        {
          "name": "",
          "type": "string"
        }
      ],
      "payable": false,
      "stateMutability": "view",
      "type": "function"
    }
  ],
  "bytecode": "0x608060405234801561001057600080fd5b506106d8806100206000396000f3fe60806040526004361061005c576000357c0100000000000000000000000000000000000000000000000000000000900480630178fe3f146100615780635da40c4714610115578063af4a74cf14610140578063fb218f5f146101fb575b600080fd5b34801561006d57600080fd5b5061009a6004803603602081101561008457600080fd5b81019080803590602001909291905050506102c3565b6040518080602001828103825283818151815260200191508051906020019080838360005b838110156100da5780820151818401526020810190506100bf565b50505050905090810190601f1680156101075780820380516001836020036101000a031916815260200191505b509250505060405180910390f35b34801561012157600080fd5b5061012a61040d565b6040518082815260200191505060405180910390f35b34801561014c57600080fd5b506101796004803603602081101561016357600080fd5b8101908080359060200190929190505050610413565b6040518083815260200180602001828103825283818151815260200191508051906020019080838360005b838110156101bf5780820151818401526020810190506101a4565b50505050905090810190601f1680156101ec5780820380516001836020036101000a031916815260200191505b50935050505060405180910390f35b34801561020757600080fd5b506102c16004803603602081101561021e57600080fd5b810190808035906020019064010000000081111561023b57600080fd5b82018360208201111561024d57600080fd5b8035906020019184600183028401116401000000008311171561026f57600080fd5b91908080601f016020809104026020016040519081016040528093929190818152602001838380828437600081840152601f19601f8201169050808301925050505050505091929192905050506104de565b005b606060008090505b6000805490508110156103ce57826000828154811015156102e857fe5b90600052602060002090600202016000015414156103c15760008181548110151561030f57fe5b90600052602060002090600202016001018054600181600116156101000203166002900480601f0160208091040260200160405190810160405280929190818152602001828054600181600116156101000203166002900480156103b45780601f10610389576101008083540402835291602001916103b4565b820191906000526020600020905b81548152906001019060200180831161039757829003601f168201915b5050505050915050610408565b80806001019150506102cb565b506040805190810160405280600e81526020017f44617461206e6f7420666f756e6400000000000000000000000000000000000081525090505b919050565b60015481565b60008181548110151561042257fe5b9060005260206000209060020201600091509050806000015490806001018054600181600116156101000203166002900480601f0160208091040260200160405190810160405280929190818152602001828054600181600116156101000203166002900480156104d45780601f106104a9576101008083540402835291602001916104d4565b820191906000526020600020905b8154815290600101906020018083116104b757829003601f168201915b5050505050905082565b600160008154809291906001019190505550600060408051908101604052806001548152602001838152509080600181540180825580915050906001820390600052602060002090600202016000909192909190915060008201518160000155602082015181600101908051906020019061055a929190610607565b505050507f56ae0cf797dc5c06b48e3f1f0ac14db02bbbeff12a70e489e5a2403ffc021bb8600154826040518083815260200180602001828103825283818151815260200191508051906020019080838360005b838110156105c95780820151818401526020810190506105ae565b50505050905090810190601f1680156105f65780820380516001836020036101000a031916815260200191505b50935050505060405180910390a150565b828054600181600116156101000203166002900490600052602060002090601f016020900481019282601f1061064857805160ff1916838001178555610676565b82800160010185558215610676579182015b8281111561067557825182559160200191906001019061065a565b5b5090506106839190610687565b5090565b6106a991905b808211156106a557600081600090555060010161068d565b5090565b9056fea165627a7a72305820ce52ac1e5439d9999c1b770e7666685bd776d4f8fdf5c2982d8005d5e00524320029",
  "source": "// SPDX-License-Identifier: MIT\r\npragma solidity >=0.4.22 <0.9.0;\r\n\r\ncontract DataStorage {\r\n    struct Data {\r\n        uint256 id;\r\n        string value;\r\n    }\r\n\r\n    Data[] public dataList;\r\n    uint256 public dataCount;\r\n\r\n    event DataStored(uint256 id, string value);\r\n\r\n    function storeData(string memory _value) public {\r\n        dataCount++;\r\n        dataList.push(Data(dataCount, _value));\r\n        emit DataStored(dataCount, _value);\r\n    }\r\n\r\n    function getData(uint256 _id) public view returns (string memory) {\r\n        for (uint256 i = 0; i < dataList.length; i++) {\r\n            if (dataList[i].id == _id) {\r\n                return dataList[i].value;\r\n            }\r\n        }\r\n        return \"Data not found\";\r\n    }\r\n}\r\n\r\n",
  "sourcePath": "C:\\Users\\Admin\\DataStorageProject\\contracts\\DataStorage.sol",
  "compiler": {
    "name": "solc",
    "version": "0.5.1+commit.c8a2cb62.Emscripten.clang"
  },
  "schemaVersion": "3.4.16",
  "updatedAt": "2024-05-21T09:32:07.205Z",
  "networkType": "ethereum",
  "devdoc": {
    "methods": {}
  },
  "userdoc": {
    "methods": {}
  }
}